:020000040800F2
:10000000D8060020890100086F0400086704000872
:100010006B040008250300088D0E00080000000096
:100020000000000000000000000000000D060008B5
:100030002903000800000000F5040008210700085B
:10004000A3010008A3010008A3010008A301000800
:10005000A3010008A3010008A3010008A3010008F0
:10006000A3010008A3010008A3010008A3010008E0
:10007000A3010008A3010008A3010008A3010008D0
:10008000A3010008A3010008A3010008A3010008C0
:10009000A3010008A3010008A3010008A3010008B0
:1000A000A3010008A3010008A3010008A3010008A0
:1000B000A3010008A3010008A3010008A301000890
:1000C000A3010008A3010008A3010008A301000880
:1000D000A30100082D0B0008A3010008A3010008DC
:1000E000A3010008A3010008A301000800F002F822
:1000F00000F03AF80AA090E8000C82448344AAF188
:100100000107DA4501D100F02FF8AFF2090EBAE885
:100110000F0013F0010F18BFFB1A43F0010318473B
:100120004418000064180000103A24BF78C878C151
:10013000FAD8520724BF30C830C144BF04680C60ED
:10014000704700000023002400250026103A28BF35
:1001500078C1FBD8520728BF30C148BF0B60704739
:100160001FB51FBD10B510BD00F096F81146FFF782
:10017000F7FF00F027FF00F0C8F803B4FFF7F2FF25
:1001800003BC00F085FE000009488047094800478D
:10019000FEE7FEE7FEE7FEE7FEE7FEE7FEE7FEE737
:1001A000FEE7FEE704480549054A064B7047000094
:1001B00025070008ED000008D8000020D806002020
:1001C000D8020020D8020020704700000FB4044974
:1001D00010B503AA029800F031F810BC5DF814FBCA
:1001E0002C0000204FF0000200B5134694469646BE
:1001F000203922BFA0E80C50A0E80C50B1F120013A
:10020000BFF4F7AF090728BFA0E80C5048BF0CC0E7
:100210005DF804EB890028BF40F8042B08BF704745
:1002200048BF20F8022B11F0804F18BF00F8012BB7
:10023000704770477047704770470000074B70B5B4
:100240000D467B4400F011F80446284600F020F8E3
:1002500010B14FF0FF3070BD204670BD2B0D000077
:1002600001694A1C02610878704700B58FB0CDE97A
:1002700001310021059105497944CDE9031011466A
:10028000684600F02EF80FB000BD0000E5FFFFFF4C
:10029000007B00F080007047754600F03FF8AE46E6
:1002A00005006946534620F00700854618B020B582
:1002B000FFF778FFBDE820404FF000064FF0000741
:1002C0004FF000084FF0000B21F00701AC46ACE8FE
:1002D000C009ACE8C009ACE8C009ACE8C0098D466B
:1002E00070472DE9F04106460024D6E90170F56813
:1002F0008046304603E04146B847641C3046A84774
:100300000028F8D12046BDE8F08110B50446AFF3CF
:1003100000802046BDE81040FFF72FBF004870471F
:100320007800002000BFFEE77047002100E0491C74
:100330008142FCD370472DE9F0410246002500269A
:10034000002000230024002791F803C00CF00F05C3
:1003500091F803C00CF0100CBCF1000F03D091F821
:1003600002C04CEA050591F800C0BCF1000F31D085
:10037000146800202BE04FF0010C0CFA00F3B1F8E8
:1003800000C00CEA03069E4220D183004FF00F0C00
:100390000CFA03F7BC4305FA03FC4CEA040491F899
:1003A00003C0BCF1280F06D14FF0010C0CFA00FC81
:1003B000C2F814C00AE091F803C0BCF1480F05D19F
:1003C0004FF0010C0CFA00FCC2F810C0401C0828C9
:1003D000D1D31460B1F800C0BCF1FF0F34DD546814
:1003E00000202EE000F1080C4FF0010808FA0CF391
:1003F000B1F800C00CEA03069E4221D183004FF001
:100400000F0C0CFA03F7BC4305FA03FC4CEA040496
:1004100091F803C0BCF1280F05D100F1080C08FACF
:100420000CF8C2F8148091F803C0BCF1480F07D152
:1004300000F1080C4FF0010808FA0CF8C2F810801F
:10044000401C0828CED35460BDE8F081024600204D
:1004500093680B400BB1012000E000207047416120
:1004600070470161704700BFFEE700BFFEE77047BD
:1004700070B5002100230F22C47804B3154C246802
:1004800004F4E064C4F5E064210AC1F10403CA4045
:10049000447804FA03F184781440214309010E4C96
:1004A0000678A155047804F01F050124AC400578B6
:1004B0006D11AD0005F1E025C5F8004109E00478B3
:1004C00004F01F050124AC40044D0678761145F870
:1004D000264070BD0CED00E000E400E080E100E0AB
:1004E00002490143024A1160704700000000FA050A
:1004F0000CED00E07047000029B1064AD2690243C2
:10050000044BDA6104E0034AD2698243014BDA61A9
:10051000704700000010024029B1064A9269024368
:10052000044B9A6104E0034A92698243014B9A6149
:10053000704700000010024030B500210022002466
:1005400000232D4D6D6805F00C0121B1042905D063
:10055000082923D105E0294D056022E0274D0560DB
:100560001FE0254D6D6805F47012234D6D6805F48C
:100570008034022505EB92421CB9214D554305609C
:100580000BE01D4D6D6805F400351DB11C4D554344
:10059000056002E0194D5543056002E0174D056006
:1005A00000BF00BF144D6D6805F0F0010909154D3D
:1005B0006B5C0568DD4045600F4D6D6805F4E061DA
:1005C000090A104D6B5C4568DD4085600A4D6D6819
:1005D00005F46051C90A0B4D6B5C4568DD40C56090
:1005E000054D6D6805F44041890B074D6B5CC5688E
:1005F000B5FBF3F5056130BD0010024000127A0032
:1006000000093D005400002064000020704710B530
:1006100000F002F810BD00000CB500200190009021
:100620003348006840F480303149086000BF3048EA
:10063000006800F4003000900198401C0190009880
:1006400018B90198B0F5A06FF1D12948006800F4FD
:10065000003010B10120009001E0002000900098CF
:10066000012843D12348006840F010002149086068
:100670000846006820F0030008600846006840F063
:10068000020008601A4840681949486008464068F6
:1006900048600846406840F480604860084640680A
:1006A00020F47C1048600846406840F4E810486038
:1006B0000846006840F08070086000BF0C48006881
:1006C00000F000700028F9D00948406820F00300CD
:1006D000074948600846406840F00200486000BF93
:1006E0000348406800F00C000828F9D10CBD000058
:1006F0000010024000200240042808D14FF0E02101
:10070000096941F004014FF0E022116107E04FF068
:10071000E021096921F004014FF0E02211617047E6
:100720007047000010B51348006840F001001149FF
:10073000086008464068104908400E49486008466D
:1007400000680E4908400B4908600846006820F41C
:10075000802008600846406820F4FE0048604FF49E
:100760001F008860FFF753FF4FF0006004490860E6
:1007700010BD0000001002400000FFF8FFFFF6FE71
:1007800008ED00E021B1028842F08002028004E01E
:1007900002884FF67F731A400280704721B10288A9
:1007A00042F00102028004E002884FF6FE731A4014
:1007B000028070470146888C7047000070B50024A5
:1007C00000220023058C4FF6FE7635400584028C0E
:1007D0008388048B4FF68F752C40B51E2C400D88F6
:1007E0002C43751E2A400D892A434D882A43144DF7
:1007F000A8420BD0134DA84208D0134DA84205D0F3
:10080000124DA84202D0124DA84213D14FF6F775EF
:100810002A404D892A434FF6FB752A408D882A438A
:100820004FF6FF652B404FF6FF552B408D892B432C
:10083000CD892B4383800483CD888586028470BD57
:10084000002C0140003401400040014000440140C0
:10085000004801400A460021018B4FF6F77319400A
:10086000114301837047000070B50024002200236B
:10087000058C4FF6EF7635400584028C8388048B17
:1008800048F6FF752C404FF6FF452C400D884FF67B
:10089000FF7606EA05252C434FF6DF752A400D89C1
:1008A00006EA05152A434D8806EA05152A43154D23
:1008B000A84202D0144DA8421DD14FF67F752A40A0
:1008C0004D894FF6FF7606EA05152A434FF6BF75A8
:1008D0002A408D8806EA05152A434FF6FF352B403E
:1008E0004FF2FF752B408D8906EA85052B43CD8994
:1008F00006EA85052B4383800483CD88058702841F
:1009000070BD0000002C0140003401400A46002167
:10091000018B4FF2FF7319404FF6FF7303EA022376
:10092000194301837047000070B5002400220023A2
:10093000058C4FF6FF6635400584028C8388848BD6
:100940004FF68F752C404FF6FC752C400D882C43CC
:100950004FF6FF552A400D894FF6FF7606EA05252A
:100960002A434D8806EA05252A43154DA84202D0A0
:10097000144DA8421DD14FF2FF752A404D894FF604
:10098000FF7606EA05252A434FF6FF352A408D8873
:1009900006EA05252A434EF6FF752B404DF6FF75F6
:1009A0002B408D8906EA05152B43CD8906EA0515EE
:1009B0002B4383808483CD888587028470BD0000AB
:1009C000002C0140003401400A460021818B4FF683
:1009D000F7731940114381837047000070B50022FE
:1009E00000230024058C4EF6FF7635400584038CE9
:1009F0008488828B48F6FF752A404FF6FF452A40CF
:100A00000D884FF6FF7606EA05252A434DF6FF7559
:100A10002B400D8906EA05352B434D8806EA05353E
:100A20002B430B4DA84202D00A4DA84208D14BF6E9
:100A3000FF752C408D894FF6FF7606EA85152C430D
:100A400084808283CD88A0F84050038470BD00006C
:100A5000002C0140003401400A460021818B4FF2F6
:100A6000FF7319404FF6FF7303EA02231943818392
:100A70007047818670470187704781877047A0F86B
:100A80004010704781847047002202881D4B9842B5
:100A90000ED01D4B98420BD0B0F1804F08D01B4BAD
:100AA000984205D01A4B984202D01A4B984204D172
:100AB0004FF68F731A404B881A43174B984207D052
:100AC000164B984204D04FF6FF431A40CB881A4386
:100AD00002808B8883850B8803850A4B98420BD054
:100AE000094B984208D00E4B984205D00D4B9842C6
:100AF00002D00D4B984201D10B7A038601238382E9
:100B000070470000002C0140003401400004004008
:100B100000080040000C004000100040001400409D
:100B200000400140004401400048014010B540F23F
:100B30002551074800F02FF848B140F225510448EC
:100B400000F00EF8034A0449044800F0C3FB10BD4E
:100B500000380140080000200400002000000020B0
:100B600010B50022002340F66A14A14200D100BF54
:100B70000A1201249440A3B2DC43048010BD21B1C9
:100B8000828942F40052828104E082894DF6FF732B
:100B90001A408281704770B5024600240023002568
:100BA000002040F66A16B14200D100BFC1F34215E1
:100BB00001F01F03012606FA03F3012D02D19689E5
:100BC000334006E0022D02D1168A334001E0968AB6
:100BD00033400C12012606FA04F41688344013B18F
:100BE0000CB1012000E0002070BDF0B503460024E8
:100BF00000260025002040F66A17B94200D100BF48
:100C00001846C1F3421401F01F06012707FA06F542
:100C1000012C01D10C3004E0022C01D1103000E095
:100C200014301AB107682F43076002E00768AF432A
:100C30000760F0BD2DE9F04786B005460E4600245A
:100C4000A24600BFA1460027B08900B100BF2F46D1
:100C50002C8A4CF6FF700440F08804432C82AC8947
:100C60004EF6F3100440B088318908437189084377
:100C70000443AC81AC8A4FF6FF400440B089044382
:100C8000AC8201A8FFF758FC1F48874202D1DDF86B
:100C900010A001E0DDF80CA0A88900F4004040B1EC
:100CA0000AEBCA0000EB0A1031684900B0FBF1F80A
:100CB00007E00AEBCA0000EB0A1031688900B0FBBC
:100CC000F1F86420B8FBF0F004012009642101FB75
:100CD0001089A88900F4004040B1322000EBC9001F
:100CE000B0FBF1F000F00700044308E0322000EB15
:100CF00009106421B0FBF1F000F00F0004432C81D7
:100D000006B0BDE8F0870000003801400146888841
:100D1000C0F308007047000010E000BF0B4A1288C3
:100D200002F08002002AF9D00278084B1B1D1A80BD
:100D3000401C074A1268521C054B1A60044A12688C
:100D40008A42EADB0022024B1A60704700380140F9
:100D5000500000201FB501210820FFF7DDFB012115
:100D60000846FFF7C9FB4FF40060ADF80C001020F7
:100D70008DF80F0003208DF80E0003A91248FFF72D
:100D8000DAFA4FF400611048FFF769FB4FF4806016
:100D9000ADF80C0028208DF80F0003A90A48FFF7D2
:100DA000CAFA4FF6FF70ADF804004720ADF8000016
:100DB0000020ADF80600ADF8020069464FF0804013
:100DC000FFF762FE1FBD0000000C01402DE9F0415D
:100DD000002400BF4FF480611F48FFF737FB012854
:100DE000F8D000F041F800BF4FF480611A48FFF7D7
:100DF0002DFB0028F8D000214FF08040FFF742FE85
:100E000001218807FFF7CAFC00BF4FF48061124838
:100E1000FFF71CFB0128F8D04FF08040FFF7CAFC19
:100E2000054600F089FC044600214FF08040FFF7A2
:100E3000B5FC0A49204600F0BDFB0746084900F012
:100E4000C3FC06464FF0804100F0B4FB054605495F
:100E500000F0BAFCBDE8F081000C014000247449A8
:100E60000000AA430000C84210B54FF400610648D4
:100E7000FFF7F7FA282000F055F84FF40061024818
:100E8000FFF7EDFA10BD0000000C014000BFFEE7C7
:100E900000BF704710B56FF00400FFF72DFC0A4843
:100EA00000680A49B0FBF1F009490870084600786B
:100EB00000EB4001C1EBC0104FF6FF7101EAC0002A
:100EC0000449088010BD00001400002000127A00C0
:100ED000280000202A0000200146114A12884A43B7
:100EE0004FF0E0235A6100229A611A46126942F0DB
:100EF00001021A6100BF4FF0E022106900F0010208
:100F00001AB100F48032002AF5D04FF0E0221269C5
:100F100022F001024FF0E0231A6100229A6170472B
:100F20002A0000200146114A12784A434FF0E0237C
:100F30005A6100229A611A46126942F001021A614E
:100F400000BF4FF0E022106900F001021AB100F476
:100F50008032002AF5D04FF0E022126922F001021F
:100F60004FF0E0231A6100229A61704728000020A8
:100F700000BF054A128802F04002002AF9D0C2B22E
:100F8000014B1B1D1A8070470038014030B50246E6
:100F90000B46002010E012F8014B6040002109E0F0
:100FA00000F001041CB18C2484EA600000E04010D1
:100FB0004C1CE1B20829F3DB1C1EA3F10105ABB206
:100FC000E9D130BD08B500F085F8FFF7C3FEFFF7A3
:100FD00061FF4FF4A060FFF783FA4FF4E13000F0B7
:100FE00029F93548FFF7A1F964E00024FFF7EEFE88
:100FF00004464FF41670FFF76FFF3049204600F0AB
:10100000AFFB3DD2B42000F0D1F8B4202C490880C9
:1010100040422C4908802C48007800902B48B0F9B9
:10102000003022460846B0F900102548B0F900000B
:1010300000F04CFA0D20FFF74FFF2548FFF775F938
:10104000C82000F0DFF8C8201D4908806FF0B30009
:101050001C4908801C48007800901C48B0F90030FA
:1010600022460846B0F900101548B0F9000000F01B
:101070002DFA0D20FFF730FF1548FFF756F902E073
:10108000C82000F0A9F8C8200D4908800D49088043
:101090000D48007800900D48B0F90030224608460F
:1010A000B0F900100648B0F9000000F00FFA0D206A
:1010B000FFF712FF99E70000808D5B000000A04160
:1010C0000A0000200C000020100000200E0000206C
:1010D000C0D4010000B589B001210C20FFF71CFA33
:1010E000C020ADF8200018208DF8230003208DF8D3
:1010F000220008A92A48FFF71EF90320ADF82000B6
:1011000008A92848FFF717F901210220FFF7F4F991
:1011100040F2F310ADF818004720ADF8140000209D
:10112000ADF81A00ADF816008DF81C0005A91E4890
:10113000FFF7AAFC7020ADF804000120ADF806000E
:101140000020ADF80A00ADF80C0001A91648FFF721
:1011500035FB01A91448FFF787FB01A91248FFF7E7
:10116000E3FB01A91048FFF739FC08210E48FFF7FF
:1011700071FB08210C48FFF7C9FB08210A48FFF75B
:1011800023FC08210848FFF767FC01210648FFF708
:1011900005FB01210448FFF7F5FA09B000BD000086
:1011A00000080140000C01400004004010B5044656
:1011B00000210848FFF75DFC21460648FFF75BFC6D
:1011C00021460448FFF759FC00210248FFF757FC6D
:1011D00010BD00000004004010B504462146084838
:1011E000FFF747FC00210648FFF745FC00210448B3
:1011F000FFF743FC21460248FFF741FC10BD000009
:101200000004004010B5044621460948FFF731FCB0
:1012100000210748FFF72FFCA4F1140081B2044815
:10122000FFF72BFC00210248FFF729FC10BD00004E
:101230000004004010B586B00446012144F20400C9
:10124000FFF76AF94FF40070ADF8140003208DF831
:10125000160018208DF8170005A91C48FFF76BF839
:101260004FF48060ADF8140004208DF8170005A934
:101270001648FFF760F825208DF8000003208DF850
:1012800001008DF8020001208DF803006846FFF789
:10129000EFF801940020ADF80800ADF80A00ADF8B1
:1012A0000C00ADF810000C20ADF80E0001A90848A4
:1012B000FFF7C0FC012240F225510548FFF795FCDD
:1012C00001210348FFF75BFC06B010BD0008014098
:1012D000003801402DE9F04105460E46174600242E
:1012E0006648FFF713FDC4B265480078112818D18D
:1012F000AA2C13D16348007855280ED100206049EC
:10130000087061480078614908705F48407848700B
:1013100000205F4908705F490870ADE059480470CB
:10132000AAE05B48007830B101280FD002282AD00B
:1013300003287DD14CE05548847080785649088058
:1013400053480078401C5249087094E04F49534874
:10135000B0F90000C01C0C5450480088401C00B27A
:101360004E4908800846B0F900004B49B1F9001019
:10137000884207DB00204949088045480078401C26
:101380004349087077E04448B0F90000C01C3F4969
:101390000C5441480088C01C81B23C48FFF7F6FD60
:1013A0003C4908703C48B0F90000C01C3749085C53
:1013B00038490978884205D039A0FEF707FF002098
:1013C000BDE8F08132480078401C3149087052E095
:1013D0003B48008830B93A480088401C00B2384980
:1013E000088046E036480088012842D10020344970
:1013F00008801BE025493248B0F90000C01C095C98
:1014000030482F4AB2F90020815420492C48B0F9C5
:101410000000401D085C2C49294AB2F9002088547C
:1014200027480088401C00B225490880244800E075
:1014300020E0B0F900000228DCDB2248B0F900000F
:1014400028602148B0F9000030601048C079387039
:1014500000200F4908700B490870112008490870D6
:1014600000200C4908700C4908800C490880144978
:10147000088000E000BF00BF0020A1E70038014065
:101480004B0000204A00002060190008680000207E
:1014900045000020440000204C00002046000020B1
:1014A0005265636569766564206461746120636870
:1014B00065636B2073756D206572726F7221000019
:1014C0004800002040000020420000202DE9F047A5
:1014D00086B006460F4690469946DDF838A014219E
:1014E00001A8FEF77FFE00252648068026480780D3
:1014F0002648A0F800902648C0F80080002404E0A8
:101500002448005D01A90855641C022CF8DB0B255A
:101510008DF80650002417E01A48015D01AAE01C6E
:1015200011541948015D601D11541848015DE01DFA
:1015300011541748015D04F1090011541449A01C0D
:10154000095C09301154641C022CE5DBA81C01A9BC
:1015500001F800A0E81C81B201A8FFF717FDE91C03
:1015600001AA50540C480178281D11540A484178AA
:10157000681D1154112101A8FFF7CEFB06B0BDE88C
:10158000F0870000340000203600002038000020E2
:101590003C0000206019000862190008401058BF84
:1015A000C0F14040491058BFC1F140418142EFF3C2
:1015B000008070474FF47F0C1CEAD0121EBF1CEA5B
:1015C000D11392EA0C0F93EA0C0F00F0858090EA99
:1015D000010F48BF42F4807240F4000C41F4000057
:1015E0002CF07F4120F07F4000B58142A2EB030246
:1015F0000FF2081CACEB504EC0F100009EF800E06A
:101600004FEA4E0E00FB0EFC38BF49004FEA2C1C7F
:1016100002F5FA020CFB0EF34FEACE1E4FEA112C34
:101620004FEAC1210EEB635E42EB22420EFB0CFC43
:101630004FEA1C5300FB03114FEA112C4FEA013112
:101640000EFB0CFC4FEADC4C00FB0C11C14228BF26
:1016500009184CEB03335DF804EB10EB410143EB4D
:10166000C250B2F57C0F38BF704729D512F0F00F89
:101670001CBF00F1C04000F0004070470081828331
:101680008485868788898B8C8D8E8F919293959691
:1016900097999A9C9D9FA0A2A3A5A7A8AAACAEB01B
:1016A000B2B3B5B7B9BCBEC0C2C5C7C9CCCED1D420
:1016B000D7D9DCDFE2E6E9ECF0F3F7FAFE00000050
:1016C0004FEA400C0CF1807CBCF17E4F28BF704784
:1016D000B0F1C04000F03FB990EA010F0CEAD1131D
:1016E00048BF42F48072624538BF634507D213F4A5
:1016F0007F0F16D080EA010000F00040704710B55F
:1017000000F0E3F8097EFC3E00F005B880EA010035
:1017100000F00040704780EA010000F0004000F057
:101720001AB912F47F0F04BF0248704780EA010023
:1017300000F011B90000C07FB0FA80F310FA03F294
:10174000C3F19D030AD0D90501EB1220530638BF1F
:10175000704700F1010008BF20F001007047000051
:1017600050EA010C00F113801CF5000F58BFBCF5C6
:10177000000F01D48842704707D710F5000F58BFFB
:1017800011F5000F15D488427047894270471CF547
:10179000000F04D5BCF5000FF7D5814270474FF01C
:1017A000807C1CEB400F38BF1CEB410F01D2814203
:1017B000704710B500F089F8922449004FF00050AE
:1017C0004FF08051FFF7EABE4FF47F0C1CEAD012B5
:1017D0001EBF1CEAD11392EA0C0F93EA0C0F00F023
:1017E000478090EA010F48BF42F480724FF0004CEE
:1017F0004CEA00204CEA012102EB0302A0FB01139A
:10180000A2F50002002918BF43F001035B0028BFC6
:101810004FEA330342EB22425FEA132C4CEBC250F7
:101820002EBFBCEB436FB2F57C0F70474FEA036CE1
:10183000BCF1004F08BF20F00100B2F57C0F38BFAB
:1018400070470BD582F0FF0212F5803FC8BF70478A
:1018500000F1C040D8BF00F00040704700F5000C18
:101860005FEA4C0C48BF7047B0F1C04000F073B85D
:1018700090EA010F0CEAD11348BF42F4807262452E
:1018800038BF634504D280EA010000F00040704791
:1018900010B500F01AF800BF8900013E00F007B84B
:1018A00000F009B85FEA410C5FEA1C6C08D080EADE
:1018B000010000F050B85FEA400C5FEA1C6CF6D102
:1018C0004FF00040A0F5800070470EF1020E2EF0A0
:1018D000030E5EF8044B244204D44FEA4102B2F1F5
:1018E0007F4F11D84FEA4003B3F17F4F0CD80ED190
:1018F0004FEAD07CB2F17F4F0CEB4C0C0CF1020C98
:1019000008BF4CEBD17C04E04FF0080C01E04FEA3B
:10191000D17C0CEB4C0324FA03F404F00704B4F17B
:10192000040C06D20EEB840CBDE810404CF0010C08
:101930006047DFE80CF0070802024FF00040A0F516
:10194000800010BD0846420018BFD2F1807288BFE7
:1019500000F0004010BDFF2141EAD050C0057047A3
:1019600055AA0D0A84190008000000206800000034
:1019700028010008EC19000868000020700600002B
:10198000440100080000000000000000000088136F
:10199000D007E8030500000000A24A040000000090
:1019A000000000000102030406070809000000000F
:1019B0000000000000000000000000000000000027
:1019C0000000000000000000000000000000001106
:1019D00000000000000000000000000001020304FD
:0C19E000010203040607080902040608BF
:040000050800018965
:00000001FF
