:020000040800F2
:10000000D0060020A1010008931300088B130008FC
:100010008F13000849120008B11D000800000000FD
:100020000000000000000000000000003115000882
:100030004D120008000000001914000845160008C1
:10004000BB010008BB010008BB010008BB010008A0
:10005000BB010008BB010008BB010008BB01000890
:10006000BB010008BB010008BB010008BB01000880
:10007000BB010008BB010008BB010008BB01000870
:10008000BB010008BB010008BB010008BB01000860
:10009000BB010008BB010008BB010008BB01000850
:1000A000BB010008BB010008BB010008BB01000840
:1000B000BB010008BB010008BB010008BB01000830
:1000C000BB010008BB010008BB010008BB01000820
:1000D000BB010008511A0008BB010008BB01000861
:1000E000BB010008BB010008BB01000800F002F8DA
:1000F00000F047F80AA090E8000C82448344AAF17B
:100100000107DA4501D100F03CF8AFF2090EBAE878
:100110000F0013F0010F18BFFB1A43F0010318473B
:100120005C2700007C270000103A24BF78C878C103
:10013000FAD8520724BF30C830C144BF04680C60ED
:10014000704700000023002400250026103A28BF35
:1001500078C1FBD8520728BF30C148BF0B60704739
:10016000662902F03D83002070471FB500F01AFB9E
:1001700004000020002102F049F9E0601FBD10B525
:1001800010BD00F02BFC1146FFF7EFFF01F0C8FE99
:1001900000F049FC03B4FFF7F2FF03BC01F025FEB9
:1001A0000948804709480047FEE7FEE7FEE7FEE70B
:1001B000FEE7FEE7FEE7FEE7FEE7FEE70448054947
:1001C000054A064B7047000049160008ED0000087C
:1001D000D0000020D0060020D0020020D002002055
:1001E000704700000FB4044910B503AA029800F04C
:1001F000C7FA10BC5DF814FB2C00002070B5044653
:1002000085690068C10601D5302600E02026C007B8
:1002100007D070BDD4E9012130469047206A401CC8
:1002200020626D1EF6D570BD70B5044685690078F4
:10023000C00707D170BDD4E9012120209047206A72
:10024000401C20626D1EF6D570BD2DE9F0474FF0C1
:10025000000A89460446C0F820A02046E168884785
:10026000002876D0252806D0D4E901219047206ABD
:10027000401C2062F1E7E168204600258847C4F869
:100280001CA006460027C4F818A02A2E09D0304624
:1002900001F0A4FD38B304EB8708303EC8F81860BD
:1002A00019E059F8041B204604EB87029161E168CC
:1002B0008847012F064618D1E069002820DA25F08A
:1002C00020051DE0D8F8180000EB800006EB400088
:1002D0003038C8F818002046E1688847064601F023
:1002E0007DFD0028EED1012F0AD02E2E08D1204608
:1002F000E16888477F1C0646022F45F02005C4DBD5
:10030000A069002803DA404245F00105A061E80732
:1003100001D025F01005B6B1A6F14100192802D888
:10032000203645F400654A463146204625604D4654
:10033000FFF716FF58B1012806D0ED1D25F0070084
:1003400000F1080989E704E005F1040985E7304672
:100350008AE7206ABDE8F0877047704770477047AA
:1003600070472DE9FF4F0C461E464FF0FF378BB00C
:10037000D2E90001DDF860800A908A46C1F30A558F
:1003800005B93D46002108464FF00000BAF1000FC4
:1003900000F4400005DA00EB80004FF4400101EA70
:1003A00050004FEA9059B9F1010F00DDB9460A98A3
:1003B00050EA4A000ED044F61050A5F2FF354543EE
:1003C0002F14B8F1000F1ED07542291E1EDDC9F191
:1003D00000021CE0B8F1010F4FF0000001D0302105
:1003E00003E0F24305E02154401CB042FBDB304601
:1003F0000022002121540B99C1F80880C1E9002096
:100400000FB0BDE8F08FBD1B6D1CDEE74A4600DA79
:10041000694206A800F068FA06AB93E8070003AB50
:1004200083E8070050460A9900F046FB8DE8070074
:10043000A0F500501F3800900398002D0ADD42F20D
:100440001F014A460844002303A90390684600F0B0
:10045000AFFD09E0A0F500504A461F38002303A96C
:100460000390684600F0B9FD8DE807000004000C19
:1004700003D04FF0FF30410800E01046B8F1000F04
:1004800003D00022009215461EE0751E05D400F030
:100490008DF9303262556D1EF9D5B34601220843FD
:1004A00002D000227F1C04E02078302801D10022F5
:1004B0007F1E002A099784D01DE0112D07DA00F075
:1004C00075F9303262556D1C50EA0102F5D10843CE
:1004D00002D00098C8B10EE00021681E05E0235C40
:1004E000625C63542254401E491C8142F7DBAB46D8
:1004F000A81B401E0990002004F80B000B98099AD5
:10050000C0F80880C0E9002B7AE711264FF00008F8
:1005100057E72DE9F04F88460446D21D22F0070127
:1005200091B0D1E90001CDE90A0101F043FC024696
:100530000B98C00F01D02D2007E02068810701D55E
:100540002B2002E0202101EAC000032A099001D0FB
:10055000072A05DB03464146204600F085F90BE1FA
:100560002078800601D5E06900E00620B8F1650F2B
:10057000814606D0B8F1660F18D0B8F1670F70D178
:1005800031E00020B9F1110F009001DB112301E0EF
:1005900009F101030AAA01A90CA8FFF7E2FEDDE9AF
:1005A0000C70002609F10105834647E001204B4607
:1005B00000904FF000470AAA01A90CA8FFF7D1FE4E
:1005C000DDE90DB00C995D46002610B909F1010076
:1005D0000D18B9EB050003D4C0F1FF3609F1010590
:1005E000A5EB09002BE0B9F1010F01DA4FF0010989
:1005F0000020B9F1110F0090484601DD112300E001
:1006000003460AAA01A90CA8FFF7ABFEDDE90C70AE
:100610004D4600268346207800070AD4AB4500DA11
:100620005D4601A8012D04DD411911F8011C302996
:1006300007D04F4502DA17F1040F04DA0120824691
:100640000FE06D1EEEE7002F02DCED1B3E4403E0E1
:10065000781CA84200DD7D1CB81B00F1010A4FF098
:1006600000472078000703D4AA4501DB4FF0FF3A8A
:100670000021B7F1004F0DF143088DF8431024D04D
:1006800002202B23002F01DA7F422D230A21021E94
:10069000A0F1010000DC5FB197FBF1FC97FBF1F2E8
:1006A00001FB1C7C17460CF1300C08F801CDEEE77D
:1006B000A8F1010003702188090501D5452100E05A
:1006C0006521A0F1010800F8011C09980FA9A1EB10
:1006D0000807FF1D00B10120411901EBEA70A16973
:1006E0003844081A401EA0612078C00602D4204673
:1006F000FFF784FD099828B1D4E901219047206AC9
:10070000401C20622078C00622D52046FFF776FDE7
:100710001EE0002E04DBB34502DD01A8805D00E091
:100720003020D4E901219047206A401C2062761CC9
:10073000AAF101005FEA000A0AD100F033F8C068AC
:100740000168405CD4E901219047206A401C206286
:10075000281EA5F10105DCDC07E0D4E9012118F829
:10076000010B9047206A401C2062381EA7F1010748
:10077000F3DC2046FFF758FD032011B041E60000EE
:10078000074B70B50D467B4400F05BF804462846E5
:1007900000F01CF910B14FF0FF3070BD204670BD65
:1007A00043170000004870479000002030B5B0F1BA
:1007B0000A024FEA900E71F100034EEA817EB0EB1F
:1007C0000E0061EB91014FEA101E4EEA017E10EB24
:1007D0000E0041EB11114FEA102E4EEA016E10EBA4
:1007E0000E0041EB11214FEA104E4EEA014E10EB84
:1007F0000E0041EB1141401841F100014FEAD000D9
:1008000040EA41704FEAD10110EB80054FEA8104C4
:1008100044EA907444EB01046D1944EB0404521B48
:10082000A3414FF0000348BF0A3200D530BD401C41
:1008300041F1000130BD000001694A1C02610878E5
:10084000704700B58FB0CDE9013100210591054910
:100850007944CDE9031011466846FFF7F6FC0FB066
:1008600000BD0000E5FFFFFF2DE9F0411F460446F3
:1008700003260168072A01F4006004DB08B116A50D
:1008800005E016A503E008B115A500E015A521F0C7
:1008900010002060A069C01EA0610FB1401EA061C1
:1008A0002046FFF7ABFC4FB1D4E901213846904711
:1008B000206A401C2062C01C206206E0206AFAE721
:1008C000D4E9012115F8010B9047761EF8D2204695
:1008D000FFF7AAFCBDE8F0814E414E006E616E004C
:1008E000494E4600696E66002DE9F047814616467E
:1008F0008AB0354878440DC88DE80D0032487844F8
:10090000801C03AC0DC884E80D0041F69B30084400
:10091000372190FBF1F290FBF1F5A5F1800501FB89
:1009200012041B3C02D56442012000E00020DFF8E5
:1009300098A080460027FA44AAF1BE0A0EE0E0071C
:100940000AD03246684607EB470101230AEB8101D2
:1009500000F043FB8DE8070064107F1C002CEED1F3
:10096000194F7F44AE3F19E0E80715D007EB04109C
:100970000DF1180A90E80E008AE80E00C068F042F7
:1009800001D1981908903246012306A903A800F066
:1009900024FB03AB83E807006D10641C002DE3D13A
:1009A0004FF0010332466946B8F1000F03A802D0A8
:1009B00000F0FEFA01E000F010FBC9E90001C9F8FF
:1009C00008200AB0BDE8F0876C1F0000007B00F033
:1009D0008000704700487047700000207546FFF7A0
:1009E000F9FFAE4605006946534620F007008546EC
:1009F00018B020B5FFF7E2FBBDE820404FF000063D
:100A00004FF000074FF000084FF0000B21F00701F6
:100A1000AC46ACE8C009ACE8C009ACE8C009ACE839
:100A2000C0098D46704710B50446AFF300802046DC
:100A3000BDE81040FFF7AEBB4FF0013C50F8042B6F
:100A400051F8043B9A4221D1A2EB0C03934313EAE1
:100A5000CC1317D150F8042B51F8043B9A4215D10E
:100A6000A2EB0C03934313EACC130BD150F8042BE5
:100A700051F8043B9A4209D1A2EB0C03934313EAC9
:100A8000CC13DBD04FF00000704700BFD01A01BA82
:100A9000B1FA81F101F0180122FA01F0CB40C1F165
:100AA0002001DBB2C0B2C01A2CFA01F3D11A914373
:100AB00011EAC311E6D170475FEA400C08BF91F01C
:100AC000000F4FEA8C234FEAC12243EA51514FEA0B
:100AD0001C5018BF00F5F0404FEA300018BF41F03D
:100AE00000415FEA6C5C00F02980BCF1FF3F08BF69
:100AF00040F080407047130C06BF12044FF0100CFA
:100B00004FF0000C130E04BF12020CF1080C130F6F
:100B100004BF12010CF1040C930F04BF92000CF1FE
:100B2000020CD30F04BF52000CF1010C11464FF020
:100B30000002A0F11F00A0EB0C00704711F0004F65
:100B400008BF704731F000413FF4D5AF0B0C06BF32
:100B500009044FF0100C4FF0000C0B0E04BF0902FB
:100B60000CF1080C0B0F04BF09010CF1040C8B0FE6
:100B700004BF89000CF1020CCB0F04BF49000CF13B
:100B8000010CCCF12003A0EB0C0022FA03F302FAD3
:100B90000CF241EA030100F10100704720F07F4CA4
:100BA00080EA030023F07F47ACEB070303F57C5397
:100BB00000F0004003F1FF032DE980494FEA154B97
:100BC00009B44FEA144325EA0B4E24EA03480FF216
:100BD000042606EB132749083E785FEA320203FB3E
:100BE0000667C7F5000707FB06F64FEA54374FEADA
:100BF000D64606F1020607FB066CCCF1005C4FEA14
:100C00001C472CEA074C07FB06F40CFB06F504EB2B
:100C100015464FEA961634BF00204FF000404FEAC9
:100C2000D13706FB07FC4FEA1C4C0CFB0BF7D21B21
:100C300003FB0CF761EB07010CFB0EF7B0EB074071
:100C400072EB17420CFB08F734BFA2EB0742B2EB82
:100C5000074261EB17414FEA0C444FEA910706FB4C
:100C600007FC4FEA1C4C0CFB0BF7B0EBC74072EBD8
:100C7000573203FB0CF734BFA2EBC742B2EBC742BB
:100C800061EB57310CFB0EF7B0EBC70072EB5772FC
:100C90000CFB08F734BFA2EBC702B2EBC70261EB53
:100CA0005771039F4FEA816141EA921104EBCC0432
:100CB0004FEAD1374FEA826206FB07FC42EA901204
:100CC0004FEA80604FEA1C4C0CFB0BF7D21B03FB76
:100CD0000CF761EB07010CFB0EF7B0EB074072EB72
:100CE00017420CFB08F734BFA2EB0742B2EB0742F6
:100CF00061EB17414FEA8C554FEA910704EB9C24B6
:100D000006FB07FC4FEA1C4C0CFB0BF7B0EBC74093
:100D100072EB573203FB0CF734BFA2EBC742B2EBC6
:100D2000C74261EB57310CFB0EF7B0EBC70072EB1B
:100D300057720CFB08F734BFA2EBC702B2EBC70235
:100D400061EB577115EB4C254FEA816141EA921135
:100D50004FEA82624FEAD13742EA901206FB07FC63
:100D600044F100044FEA80604FEA1C4C0CFB0BF787
:100D7000D21B03FB0CF761EB07010CFB0EF7B0EB8A
:100D8000074072EB17420CFB08F734BFA2EB074297
:100D9000B2EB074261EB174115EB1C154FEA8131AD
:100DA00041EA92414FEA823242EA90424FEA803071
:100DB0004FEA0C7644F1000448EA03434EEA0B483C
:100DC0004FF0000EB2EB080C71EB030724BF624634
:100DD00039464EEB0E0E4FF0000B001852414941C0
:100DE0004BEB0B0BB2EB080C71EB03077BF1000B29
:100DF00024BF624639464EEB0E0E4FF0000B001832
:100E0000524149414BEB0B0BB2EB080C71EB030762
:100E10007BF1000B24BF624639464EEB0E0E51EAC1
:100E2000020718BF46F0010616EB0E7655F10002D8
:100E300054F1000103D5BDE88901BDE80088BDE893
:100E40008901BDE80048B619524141EB0101A3F107
:100E50000103704780807F7E7D7C7B7A797877760E
:100E600076757473727171706F6E6E6D6C6C6B6A87
:100E70006A69686867666665646463636261616025
:100E8000605F5F5E5E5D5D5C5C5B5B5A5A595958A2
:100E9000585757565655555554545353525252510C
:100EA000515050504F4F4F4E4E4D4D4D4C4C4C4B62
:100EB0004B4B4A4A4A4949494848484747474746A9
:100EC00046464545454444444443434343424242E5
:100ED00042414141002B9C4630D477002BD01CB5B9
:100EE0004FEA370703B44FF010004FF01001BAF18A
:100EF000000F06D0BCF1000FDCBF40F0080040F04E
:100F000008014FF000000FBCBDE810400BF1010BD1
:100F1000BBF1010F08BF5FEA170722BF12F1010200
:100F200011F101014FF0004143F1000300F00040D6
:100F300043EA00007047F9D35708D0E746EA06466F
:100F400013F1400F4FEA16461FDD13F1200FDFBFEC
:100F500016430A46002120335B42BED0C3F120076E
:100F600046EA064602FA07F74FEA164646EA070639
:100F7000C3F1200722FA03F201FA07F721FA03F17D
:100F80004FF0000342EA0702A7E746EA020646EAF4
:100F900006464FEA164646EA0106BCBF46EA064642
:100FA000360C4FF000034FF000024FF0000194E7C1
:100FB0002DE9804C9A46934670B491E8380007C8F2
:100FC00031EA400C48BF34EA430C03D5FFF7E6FD95
:100FD000FFF780FFF0BCBDE8008C2DE9804C9A46FD
:100FE000934670B491E8380007C810F0804F08BFEE
:100FF00013F0804F03D100F005F8FFF76BFFF0BC52
:10100000BDE8008C20F07F4780EA030023F07F4C8E
:1010100007EB0C03A3F57C5300F00040A3F1FE03A3
:1010200092F0000F00F0B38095F0000F00F0778091
:101030002DE901494FEA11404FEA144621EA0048E0
:1010400000FB06FC24EA064708FB06F607FB08F847
:1010500000FB07F718EB06484CEB164C4FEA124B17
:1010600018EB07484FEA15464CEB174022EA0B4EA7
:101070000BFB06FC25EA06470EFB06F607FB0EFEF9
:101080000BFB07F71EEB064E4CEB164C4FF0000621
:101090001EEB074E4CEB174B18EB0B0840F1000012
:1010A00018EB0E0B58EB000840F100008F1A4FF0C0
:1010B00000013CBFC943661B14BFB5EB040C002103
:1010C0003CBFC943F61B4FEA17444EEA8E0E27EA8F
:1010D00004454FEA1C4704FB07622CEA074C05FB5A
:1010E00007F70CFB05F604FB0CFC16EB074642EB7E
:1010F000174216EB0C4642EB1C421BEB060658EB64
:101100000202414146EA9E0601D5BDE80189B619B1
:10111000524141EB0101A3F10103BDE801894FEA0E
:1011200014454FEA114724EA054621EA074C05FB1E
:1011300007F406FB07F70CFB06F105FB0CFC11EBB3
:10114000074144EB17444FEA124711EB0C4144EBC3
:101150001C4422EA074C05FB07F206FB07F70CFBD1
:1011600006F605FB0CFC16EB074642EB174216EBA6
:101170000C4642EB1C456A1854F1000148BF704709
:10118000B619524141EB0101A3F10103704795F0FB
:10119000000F37D04FEA11424FEA144721EA0246C6
:1011A00024EA074C02FB07F106FB07F70CFB06F4E9
:1011B00002FB0CFC14EB074441EB17414FEA1547C7
:1011C00014EB0C4441EB1C4125EA074C02FB07F5EC
:1011D00006FB07F70CFB06F602FB0CFC16EB0746BA
:1011E00045EB174516EB0C4645EB1C42121951F125
:1011F000000148BF7047B619524141EB0101A3F10C
:10120000010370474FEA14454FEA114724EA0546A7
:1012100021EA074C05FB07F106FB07F70CFB06F27A
:101220004FF0000605FB0CFC12EB074241EB1741A7
:1012300012EB0C4251EB1C4148BF7047921841EB36
:101240000101A3F10103704700BFFEE770470021D1
:1012500000E0491C8142FCD370472DE9F041024671
:1012600000250026002000230024002791F803C059
:101270000CF00F0591F803C00CF0100CBCF1000F3E
:1012800003D091F802C04CEA050591F800C0BCF10A
:10129000000F31D0146800202BE04FF0010C0CFA45
:1012A00000F3B1F800C00CEA03069E4220D183008F
:1012B0004FF00F0C0CFA03F7BC4305FA03FC4CEAA1
:1012C000040491F803C0BCF1280F06D14FF0010CC3
:1012D0000CFA00FCC2F814C00AE091F803C0BCF19B
:1012E000480F05D14FF0010C0CFA00FCC2F810C0F9
:1012F000401C0828D1D31460B1F800C0BCF1FF0F26
:1013000034DD546800202EE000F1080C4FF0010895
:1013100008FA0CF3B1F800C00CEA03069E4221D192
:1013200083004FF00F0C0CFA03F7BC4305FA03FCE3
:101330004CEA040491F803C0BCF1280F05D100F178
:10134000080C08FA0CF8C2F8148091F803C0BCF13C
:10135000480F07D100F1080C4FF0010808FA0CF80B
:10136000C2F81080401C0828CED35460BDE8F0813C
:101370000246002093680B400BB1012000E00020E2
:101380007047416170470161704700BFFEE700BFD1
:10139000FEE7704770B5002100230F22C47804B324
:1013A000154C246804F4E064C4F5E064210AC1F13A
:1013B0000403CA40447804FA03F1847814402143BA
:1013C00009010E4C0678A155047804F01F0501248C
:1013D000AC4005786D11AD0005F1E025C5F8004180
:1013E00009E0047804F01F050124AC40044D0678A0
:1013F000761145F8264070BD0CED00E000E400E0F9
:1014000080E100E002490143024A11607047000098
:101410000000FA050CED00E07047000029B1064A13
:10142000D2690243044BDA6104E0034AD269824381
:10143000014BDA61704700000010024029B1064AF2
:1014400092690243044B9A6104E0034A9269824321
:10145000014B9A61704700000010024030B5002136
:101460000022002400232D4D6D6805F00C0121B1F0
:10147000042905D0082923D105E0294D056022E083
:10148000274D05601FE0254D6D6805F47012234D52
:101490006D6805F48034022505EB92421CB9214D9C
:1014A000554305600BE01D4D6D6805F400351DB119
:1014B0001C4D5543056002E0194D5543056002E09F
:1014C000174D056000BF00BF144D6D6805F0F001B9
:1014D0000909154D6B5C0568DD4045600F4D6D6871
:1014E00005F4E061090A104D6B5C4568DD408560DC
:1014F0000A4D6D6805F46051C90A0B4D6B5C456877
:10150000DD40C560054D6D6805F44041890B074D10
:101510006B5CC568B5FBF3F5056130BD001002409A
:1015200000127A0000093D004C0000205C00002001
:10153000704710B500F002F810BD00000CB5002097
:10154000019000903348006840F4803031490860D1
:1015500000BF3048006800F4003000900198401C43
:101560000190009818B90198B0F5A06FF1D1294801
:10157000006800F4003010B10120009001E000206C
:1015800000900098012843D12348006840F01000E3
:10159000214908600846006820F0030008600846FA
:1015A000006840F0020008601A4840681949486025
:1015B0000846406848600846406840F480604860DB
:1015C0000846406820F47C1048600846406840F4B3
:1015D000E81048600846006840F08070086000BF6E
:1015E0000C48006800F000700028F9D009484068F5
:1015F00020F00300074948600846406840F00200B8
:10160000486000BF0348406800F00C000828F9D18A
:101610000CBD00000010024000200240042808D148
:101620004FF0E021096941F004014FF0E02211611F
:1016300007E04FF0E021096921F004014FF0E022BA
:10164000116170477047000010B51348006840F002
:1016500001001149086008464068104908400E49D9
:101660004860084600680E4908400B490860084673
:10167000006820F4802008600846406820F4FE00DE
:1016800048604FF41F008860FFF753FF4FF0006081
:101690000449086010BD0000001002400000FFF87F
:1016A000FFFFF6FE08ED00E021B1028842F0800263
:1016B000028004E002884FF67F731A400280704770
:1016C00021B1028842F00102028004E002884FF654
:1016D000FE731A40028070470146888C70470000F4
:1016E00070B5002400220023058C4FF6FE763540AD
:1016F0000584028C8388048B4FF68F752C40B51EB1
:101700002C400D882C43751E2A400D892A434D8894
:101710002A43144DA8420BD0134DA84208D0134DB4
:10172000A84205D0124DA84202D0124DA84213D1B2
:101730004FF6F7752A404D892A434FF6FB752A402C
:101740008D882A434FF6FF652B404FF6FF552B40FF
:101750008D892B43CD892B4383800483CD88858657
:10176000028470BD002C0140003401400040014063
:1017700000440140004801400A460021018B4FF619
:10178000F7731940114301837047000070B50024BE
:1017900000220023058C4FF6EF7635400584028C3D
:1017A0008388048B48F6FF752C404FF6FF452C408C
:1017B0000D884FF6FF7606EA05252C434FF6DF75B8
:1017C0002A400D8906EA05152A434D8806EA0515C3
:1017D0002A43154DA84202D0144DA8421DD14FF600
:1017E0007F752A404D894FF6FF7606EA05152A4394
:1017F0004FF6BF752A408D8806EA05152A434FF635
:10180000FF352B404FF2FF752B408D8906EA850589
:101810002B43CD8906EA85052B4383800483CD883D
:101820000587028470BD0000002C01400034014097
:101830000A460021018B4FF2FF7319404FF6FF73E8
:1018400003EA0223194301837047000070B50024A6
:1018500000220023058C4FF6FF6635400584028C7C
:101860008388848B4FF68F752C404FF6FC752C4087
:101870000D882C434FF6FF552A400D894FF6FF7611
:1018800006EA05252A434D8806EA05252A43154D13
:10189000A84202D0144DA8421DD14FF2FF752A4034
:1018A0004D894FF6FF7606EA05252A434FF6FF35A8
:1018B0002A408D8806EA05252A434EF6FF752B40FF
:1018C0004DF6FF752B408D8906EA05152B43CD8912
:1018D00006EA05152B4383808483CD88858702849F
:1018E00070BD0000002C0140003401400A46002178
:1018F000818B4FF6F77319401143818370470000C5
:1019000070B5002200230024058C4EF6FF7635408A
:101910000584038C8488828B48F6FF752A404FF635
:10192000FF452A400D884FF6FF7606EA05252A4333
:101930004DF6FF752B400D8906EA05352B434D8882
:1019400006EA05352B430B4DA84202D00A4DA842AA
:1019500008D14BF6FF752C408D894FF6FF7606EACD
:1019600085152C4384808283CD88A0F84050038461
:1019700070BD0000002C0140003401400A460021E7
:10198000818B4FF2FF7319404FF6FF7303EA022376
:10199000194381837047818670470187704781872B
:1019A0007047A0F840107047818470470022028879
:1019B0001D4B98420ED01D4B98420BD0B0F1804F7A
:1019C00008D01B4B984205D01A4B984202D01A4BB4
:1019D000984204D14FF68F731A404B881A43174B25
:1019E000984207D0164B984204D04FF6FF431A4056
:1019F000CB881A4302808B8883850B8803850A4B2A
:101A000098420BD0094B984208D00E4B984205D013
:101A10000D4B984202D00D4B984201D10B7A0386B0
:101A20000123838270470000002C014000340140F4
:101A30000004004000080040000C0040001000407E
:101A400000140040004001400044014000480140B3
:101A500010B540F22551074800F02FF848B140F288
:101A60002551044800F00EF8034A0449044800F0E8
:101A700079FB10BD00380140080000200400002060
:101A80000000002010B50022002340F66A14A14295
:101A900000D100BF0A1201249440A3B2DC430480A9
:101AA00010BD21B1828942F40052828104E0828912
:101AB0004DF6FF731A408281704770B502460024CC
:101AC00000230025002040F66A16B14200D100BF75
:101AD000C1F3421501F01F03012606FA03F3012D9D
:101AE00002D19689334006E0022D02D1168A334096
:101AF00001E0968A33400C12012606FA04F4168897
:101B0000344013B10CB1012000E0002070BDF0B5ED
:101B10000346002400260025002040F66A17B9423B
:101B200000D100BF1846C1F3421401F01F0601277F
:101B300007FA06F5012C01D10C3004E0022C01D18A
:101B4000103000E014301AB107682F43076002E03C
:101B50000768AF430760F0BD2DE9F04786B0054642
:101B60000E460024A24600BFA1460027B08900B15E
:101B700000BF2F462C8A4CF6FF700440F0880443C7
:101B80002C82AC894EF6F3100440B08831890843AA
:101B9000718908430443AC81AC8A4FF6FF4004408E
:101BA000B0890443AC8201A8FFF758FC1F48874264
:101BB00002D1DDF810A001E0DDF80CA0A88900F446
:101BC000004040B10AEBCA0000EB0A10316849003E
:101BD000B0FBF1F807E00AEBCA0000EB0A1031682D
:101BE0008900B0FBF1F86420B8FBF0F00401200993
:101BF000642101FB1089A88900F4004040B1322023
:101C000000EBC900B0FBF1F000F00700044308E06E
:101C1000322000EB09106421B0FBF1F000F00F005E
:101C200004432C8106B0BDE8F08700000038014075
:101C300001468888C0F308007047000010E000BF2C
:101C40000B4A128802F08002002AF9D00278084B71
:101C50001B1D1A80401C074A1268521C054B1A6053
:101C6000044A12688A42EADB0022024B1A6070477B
:101C700000380140480000201FB501210820FFF76F
:101C8000DDFB01210846FFF7C9FB4FF40060ADF80A
:101C90000C0010208DF80F0003208DF80E0003A912
:101CA0001248FFF7DAFA4FF400611048FFF769FBBA
:101CB0004FF48060ADF80C0028208DF80F0003A9C8
:101CC0000A48FFF7CAFA4FF6FF70ADF80400472044
:101CD000ADF800000020ADF80600ADF8020069463E
:101CE0004FF08040FFF762FE1FBD0000000C014076
:101CF0002DE9F041002400BF4FF480611F48FFF739
:101D000037FB0128F8D000F041F800BF4FF48061A4
:101D10001A48FFF72DFB0028F8D000214FF0804033
:101D2000FFF742FE01218807FFF7CAFC00BF4FF40E
:101D300080611248FFF71CFB0128F8D04FF080406B
:101D4000FFF7CAFC054600F06BFC044600214FF08B
:101D50008040FFF7B5FC0A49204600F09FFB07468C
:101D6000084900F071FC06464FF0804100F096FBF8
:101D70000546054900F068FCBDE8F081000C014013
:101D8000002474490000AA430000C84210B54FF473
:101D900000610648FFF7F7FA282000F071F84FF4C9
:101DA00000610248FFF7EDFA10BD0000000C014091
:101DB00000BFFEE7490050EAC12018BF04204A0DC9
:101DC00018BF40F0010040F2FF72B2EB515F08BF54
:101DD00040F00200012808BF0520704730380A286B
:101DE00001D2012070470020704700BF70470000FB
:101DF00010B56FF00400FFF711FC0A4800680A49AB
:101E0000B0FBF1F0094908700846007800EB40018A
:101E1000C1EBC0104FF6FF7101EAC0000449088011
:101E200010BD00001400002000127A0028000020DD
:101E30002A0000200146114A12884A434FF0E0234D
:101E40005A6100229A611A46126942F001021A612F
:101E500000BF4FF0E022106900F001021AB100F457
:101E60008032002AF5D04FF0E022126922F0010200
:101E70004FF0E0231A6100229A6170472A00002087
:101E80000146114A12784A434FF0E0235A6100227A
:101E90009A611A46126942F001021A6100BF4FF0BE
:101EA000E022106900F001021AB100F48032002A29
:101EB000F5D04FF0E022126922F001024FF0E0234A
:101EC0001A6100229A6170472800002000BF054A6D
:101ED000128802F04002002AF9D0C2B2014B1B1D49
:101EE0001A8070470038014030B502460B4600208A
:101EF00010E012F8014B6040002109E000F00104FD
:101F00001CB18C2484EA600000E040104C1CE1B25B
:101F10000829F3DB1C1EA3F10105ABB2E9D130BDEA
:101F200000F04EF8FFF7A8FEFFF762FF4FF4A06045
:101F3000FFF768FA4FF4E13000F0C4F816A0FEF79E
:101F400051F91748FFF783F924E00024FFF7D0FE8A
:101F500004464FF41670FFF76DFF1249087800F041
:101F60009BF8204600F06EFA05462A460B460EA066
:101F7000FEF738F9104803781048B0F900200948F6
:101F8000008801B20748008800B200F0E7F90D2090
:101F9000FFF750FFD9E7000048656C6C6F00000048
:101FA000808D5B000000002064697374616E63655E
:101FB0003A25352E32662000100000200E00002049
:101FC00000B589B001210C20FFF738FAC020ADF828
:101FD000200018208DF8230003208DF8220008A986
:101FE0002A48FFF73AF90320ADF8200008A928484D
:101FF000FFF733F901210220FFF710FA40F2F31046
:10200000ADF818004720ADF814000020ADF81A0014
:10201000ADF816008DF81C0005A91E48FFF7C6FC98
:102020007020ADF804000120ADF806000020ADF8E6
:102030000A00ADF80C0001A91648FFF751FB01A9F1
:102040001448FFF7A3FB01A91248FFF7FFFB01A902
:102050001048FFF755FC08210E48FFF78DFB0821BB
:102060000C48FFF7E5FB08210A48FFF73FFC082171
:102070000848FFF783FC01210648FFF721FB0121F7
:102080000448FFF711FB09B000BD00000008014043
:10209000000C01400004004010B5044621460848E9
:1020A000FFF779FC00210648FFF777FC0021044880
:1020B000FFF775FC21460248FFF773FC10BD0000D6
:1020C0000004004010B586B00446012144F204002B
:1020D000FFF7B4F94FF40070ADF8140003208DF849
:1020E000160018208DF8170005A91C48FFF7B5F851
:1020F0004FF48060ADF8140004208DF8170005A996
:102100001648FFF7AAF825208DF8000003208DF867
:1021100001008DF8020001208DF803006846FFF7EA
:1021200039F901940020ADF80800ADF80A00ADF8C7
:102130000C00ADF810000C20ADF80E0001A9084805
:10214000FFF70AFD012240F225510548FFF7DFFCA9
:1021500001210348FFF7A5FC06B010BD00080140AF
:10216000003801402DE9F04105460E46174600248F
:102170006648FFF75DFDC4B265480078112818D1A4
:10218000AA2C13D16348007855280ED1002060494D
:10219000087061480078614908705F48407848706D
:1021A00000205F4908705F490870ADE0594804702D
:1021B000AAE05B48007830B101280FD002282AD06D
:1021C00003287DD14CE055488470807856490880BA
:1021D00053480078401C5249087094E04F495348D6
:1021E000B0F90000C01C0C5450480088401C00B2DC
:1021F0004E4908800846B0F900004B49B1F900107B
:10220000884207DB00204949088045480078401C87
:102210004349087077E04448B0F90000C01C3F49CA
:102220000C5441480088C01C81B23C48FFF75CFE5A
:102230003C4908703C48B0F90000C01C3749085CB4
:1022400038490978884205D039A0FDF7CBFF002036
:10225000BDE8F08132480078401C3149087052E0F6
:102260003B48008830B93A480088401C00B23849E1
:10227000088046E036480088012842D100203449D1
:1022800008801BE025493248B0F90000C01C095CF9
:1022900030482F4AB2F90020815420492C48B0F927
:1022A0000000401D085C2C49294AB2F900208854DE
:1022B00027480088401C00B225490880244800E0D7
:1022C00020E0B0F900000228DCDB2248B0F9000071
:1022D00028602148B0F9000030601048C07938709B
:1022E00000200F4908700B49087011200849087038
:1022F00000200C4908700C4908800C4908801449DA
:10230000088000E000BF00BF0020A1E700380140C6
:102310004500002044000020E42700086000002061
:102320003F0000203E00002046000020400000202A
:1023300052656365697665642064617461206368D1
:1023400065636B2073756D206572726F722100007A
:10235000420000203A0000203C0000202DE9FF430D
:1023600006460F4690469946002000900190029044
:102370000390002520480680204807802048A0F8C8
:102380000080002404E01F48005D0DF80400641C78
:10239000022CF8DB07258DF8025000240FE01648C8
:1023A000015DE01C0DF800101448015D601D0DF882
:1023B00000101348015DE01D0DF80010641C022C94
:1023C000EDDBA81C0DF80090E81C81B26846FFF711
:1023D0008BFDE91C0DF801000B480178281D0DF854
:1023E000001009484178681D0DF800100D2168465D
:1023F000FFF724FCBDE8FF833400002036000020F6
:1024000038000020E4270008E627000810B500295E
:102410000AD00878002807D005487844FEF70CFB5E
:10242000002801D0002010BD0248784410BD0000F3
:10243000820400007A0400000808A0F500114FEAA9
:102440003101704743004FEAD30C4FEA3C0C434044
:102450001FBF40070CF1605113F0FE4F70471CF096
:10246000006F03D100200CF0004170470CF00043D6
:1024700043EA507010B540EACC0000F066F900BFA6
:10248000000000924FEA0001FFF7D6BF4FF0004175
:102490004FF00000A1F50021704700004FF47F0CC1
:1024A0001CEAD0121EBF1CEAD11392EA0C0F93EA69
:1024B0000C0F00F0858090EA010F48BF42F4807253
:1024C00040F4000C41F400002CF07F4120F07F40EC
:1024D00000B58142A2EB03020FF2081CACEB504E98
:1024E000C0F100009EF800E04FEA4E0E00FB0EFC2B
:1024F00038BF49004FEA2C1C02F5FA020CFB0EF320
:102500004FEACE1E4FEA112C4FEAC1210EEB635E5B
:1025100042EB22420EFB0CFC4FEA1C5300FB031162
:102520004FEA112C4FEA01310EFB0CFC4FEADC4C58
:1025300000FB0C11C14228BF09184CEB03335DF8B6
:1025400004EB10EB410143EBC250B2F57C0F38BFF6
:10255000704729D512F0F00F1CBF00F1C04000F009
:1025600000407047008182838485868788898B8CB0
:102570008D8E8F919293959697999A9C9D9FA0A2EC
:10258000A3A5A7A8AAACAEB0B2B3B5B7B9BCBEC03C
:10259000C2C5C7C9CCCED1D4D7D9DCDFE2E6E9ECDD
:1025A000F0F3F7FAFE0000004FEA400C0CF1807CDB
:1025B000BCF17E4F28BF7047B0F1C04000F00BB9AE
:1025C00090EA010F0CEAD11348BF42F480726245D1
:1025D00038BF634507D213F47F0F16D080EA01009D
:1025E00000F00040704710B500F0AFF8097EFC3EE7
:1025F00000F005B880EA010000F00040704780EA72
:10260000010000F0004000F0E6B812F47F0F04BFB4
:102610000248704780EA010000F0DDB80000C07F8A
:10262000B0FA80F310FA03F2C3F19D030AD0D90582
:1026300001EB1220530638BF704700F1010008BFBC
:1026400020F00100704700004FF47F0C1CEAD0120C
:102650001EBF1CEAD11392EA0C0F93EA0C0F00F094
:10266000478090EA010F48BF42F480724FF0004C5F
:102670004CEA00204CEA012102EB0302A0FB01130B
:10268000A2F50002002918BF43F001035B0028BF38
:102690004FEA330342EB22425FEA132C4CEBC25069
:1026A0002EBFBCEB436FB2F57C0F70474FEA036C53
:1026B000BCF1004F08BF20F00100B2F57C0F38BF1D
:1026C00070470BD582F0FF0212F5803FC8BF7047FC
:1026D00000F1C040D8BF00F00040704700F5000C8A
:1026E0005FEA4C0C48BF7047B0F1C04000F073B8CF
:1026F00090EA010F0CEAD11348BF42F480726245A0
:1027000038BF634504D280EA010000F00040704702
:1027100010B500F01AF800BF8900013E00F007B8BC
:1027200000F009B85FEA410C5FEA1C6C08D080EA4F
:10273000010000F050B85FEA400C5FEA1C6CF6D173
:102740004FF00040A0F5800070470EF1020E2EF011
:10275000030E5EF8044B244204D44FEA4102B2F166
:102760007F4F11D84FEA4003B3F17F4F0CD80ED101
:102770004FEAD07CB2F17F4F0CEB4C0C0CF1020C09
:1027800008BF4CEBD17C04E04FF0080C01E04FEAAD
:10279000D17C0CEB4C0324FA03F404F00704B4F1ED
:1027A000040C06D20EEB840CBDE810404CF0010C7A
:1027B0006047DFE80CF0070802024FF00040A0F588
:1027C000800010BD0846420018BFD2F1807288BF59
:1027D00000F0004010BDFF2141EAD050C005704715
:1027E000FDF797BE55AA0D0A02400000000000A0A8
:1027F0000000000005400000000000C800000000CC
:102800000C4000000000409C000000001940000047
:102810000020BCBE0000000034400000BFC91B8E79
:1028200000000004B5400000504BCFD06607E2CF57
:10283000010000006C4100003E8251AADFEEA73487
:1028400001000000D9420000DCB5A0E23A301F9739
:10285000FFFFFFFFB4450000FD25A0C8E9A3C14F5D
:10286000FFFFFFFFFF3F00000000008000000000AE
:10287000FF3F00000000008000000000B8280008B2
:10288000000000206000000028010008182900084E
:102890006000002070060000440100081C000000D9
:1028A00043000000F8FFFFFF0C0000000E000000D6
:1028B0000F0000002E000000640000006400000013
:1028C00000008813D007E8030500000000A24A04B6
:1028D00000000000000000000102030406070809D0
:1028E00000000000000000000000000000000000E8
:1028F00000000000000000000000000000110000C7
:1029000000000000000000000102030401020304B3
:0829100006070809020406088D
:04000005080001A14D
:00000001FF
